{
  "contractName": "Covid",
  "abi": [
    {
      "anonymous": false,
      "inputs": [
        {
          "indexed": true,
          "internalType": "address",
          "name": "previousOwner",
          "type": "address"
        },
        {
          "indexed": true,
          "internalType": "address",
          "name": "newOwner",
          "type": "address"
        }
      ],
      "name": "OwnershipTransferred",
      "type": "event"
    },
    {
      "anonymous": false,
      "inputs": [
        {
          "indexed": true,
          "internalType": "address",
          "name": "hubAddres",
          "type": "address"
        },
        {
          "indexed": true,
          "internalType": "address",
          "name": "from",
          "type": "address"
        },
        {
          "indexed": false,
          "internalType": "uint256",
          "name": "time",
          "type": "uint256"
        }
      ],
      "name": "deletedHub",
      "type": "event"
    },
    {
      "anonymous": false,
      "inputs": [
        {
          "indexed": true,
          "internalType": "address",
          "name": "minestryAddres",
          "type": "address"
        },
        {
          "indexed": true,
          "internalType": "address",
          "name": "from",
          "type": "address"
        },
        {
          "indexed": false,
          "internalType": "uint256",
          "name": "time",
          "type": "uint256"
        }
      ],
      "name": "deletedMinestry",
      "type": "event"
    },
    {
      "anonymous": false,
      "inputs": [
        {
          "indexed": true,
          "internalType": "address",
          "name": "hubAddress",
          "type": "address"
        },
        {
          "indexed": true,
          "internalType": "address",
          "name": "from",
          "type": "address"
        },
        {
          "indexed": false,
          "internalType": "uint256",
          "name": "time",
          "type": "uint256"
        }
      ],
      "name": "newHub",
      "type": "event"
    },
    {
      "anonymous": false,
      "inputs": [
        {
          "indexed": true,
          "internalType": "address",
          "name": "minestryAddress",
          "type": "address"
        },
        {
          "indexed": true,
          "internalType": "address",
          "name": "from",
          "type": "address"
        },
        {
          "indexed": false,
          "internalType": "uint256",
          "name": "time",
          "type": "uint256"
        }
      ],
      "name": "newMinestry",
      "type": "event"
    },
    {
      "anonymous": false,
      "inputs": [
        {
          "indexed": true,
          "internalType": "address",
          "name": "user",
          "type": "address"
        },
        {
          "indexed": true,
          "internalType": "address",
          "name": "from",
          "type": "address"
        },
        {
          "indexed": false,
          "internalType": "bytes32",
          "name": "hashTest",
          "type": "bytes32"
        },
        {
          "indexed": false,
          "internalType": "uint256",
          "name": "time",
          "type": "uint256"
        },
        {
          "indexed": false,
          "internalType": "bool",
          "name": "positivity",
          "type": "bool"
        }
      ],
      "name": "testPublish",
      "type": "event"
    },
    {
      "anonymous": false,
      "inputs": [
        {
          "indexed": true,
          "internalType": "address",
          "name": "user",
          "type": "address"
        },
        {
          "indexed": true,
          "internalType": "address",
          "name": "from",
          "type": "address"
        },
        {
          "indexed": false,
          "internalType": "bytes32",
          "name": "hashCertificate",
          "type": "bytes32"
        },
        {
          "indexed": false,
          "internalType": "uint256",
          "name": "time",
          "type": "uint256"
        }
      ],
      "name": "vaccinePublish",
      "type": "event"
    },
    {
      "inputs": [
        {
          "internalType": "address",
          "name": "",
          "type": "address"
        }
      ],
      "name": "hubs",
      "outputs": [
        {
          "internalType": "bool",
          "name": "",
          "type": "bool"
        }
      ],
      "stateMutability": "view",
      "type": "function",
      "constant": true
    },
    {
      "inputs": [
        {
          "internalType": "address",
          "name": "",
          "type": "address"
        }
      ],
      "name": "ministries",
      "outputs": [
        {
          "internalType": "bool",
          "name": "",
          "type": "bool"
        }
      ],
      "stateMutability": "view",
      "type": "function",
      "constant": true
    },
    {
      "inputs": [],
      "name": "owner",
      "outputs": [
        {
          "internalType": "address",
          "name": "",
          "type": "address"
        }
      ],
      "stateMutability": "view",
      "type": "function",
      "constant": true
    },
    {
      "inputs": [],
      "name": "renounceOwnership",
      "outputs": [],
      "stateMutability": "nonpayable",
      "type": "function"
    },
    {
      "inputs": [
        {
          "internalType": "address",
          "name": "newOwner",
          "type": "address"
        }
      ],
      "name": "transferOwnership",
      "outputs": [],
      "stateMutability": "nonpayable",
      "type": "function"
    },
    {
      "inputs": [
        {
          "internalType": "address",
          "name": "_ministryAddress",
          "type": "address"
        }
      ],
      "name": "addMinestry",
      "outputs": [],
      "stateMutability": "nonpayable",
      "type": "function"
    },
    {
      "inputs": [
        {
          "internalType": "address",
          "name": "_ministryAddress",
          "type": "address"
        }
      ],
      "name": "removeMinestry",
      "outputs": [],
      "stateMutability": "nonpayable",
      "type": "function"
    },
    {
      "inputs": [
        {
          "internalType": "address",
          "name": "_hubAddress",
          "type": "address"
        }
      ],
      "name": "addHub",
      "outputs": [],
      "stateMutability": "nonpayable",
      "type": "function"
    },
    {
      "inputs": [
        {
          "internalType": "address",
          "name": "_hubAddress",
          "type": "address"
        }
      ],
      "name": "removeHub",
      "outputs": [],
      "stateMutability": "nonpayable",
      "type": "function"
    },
    {
      "inputs": [
        {
          "internalType": "bytes32",
          "name": "_hashID",
          "type": "bytes32"
        },
        {
          "internalType": "bytes32",
          "name": "_hashTest",
          "type": "bytes32"
        },
        {
          "internalType": "bool",
          "name": "_positivity",
          "type": "bool"
        },
        {
          "internalType": "address",
          "name": "_userAddress",
          "type": "address"
        }
      ],
      "name": "approveTest",
      "outputs": [],
      "stateMutability": "nonpayable",
      "type": "function"
    },
    {
      "inputs": [
        {
          "internalType": "bytes32",
          "name": "_hashID",
          "type": "bytes32"
        },
        {
          "internalType": "bytes32",
          "name": "_hashCertificate",
          "type": "bytes32"
        },
        {
          "internalType": "address",
          "name": "_userAddress",
          "type": "address"
        }
      ],
      "name": "approveVaccine",
      "outputs": [],
      "stateMutability": "nonpayable",
      "type": "function"
    },
    {
      "inputs": [
        {
          "internalType": "bytes32",
          "name": "_hashID",
          "type": "bytes32"
        },
        {
          "internalType": "bytes32",
          "name": "_hashCertificate",
          "type": "bytes32"
        },
        {
          "internalType": "address",
          "name": "_userAddress",
          "type": "address"
        }
      ],
      "name": "verificationVaccine",
      "outputs": [
        {
          "internalType": "bool",
          "name": "result",
          "type": "bool"
        },
        {
          "internalType": "uint256",
          "name": "time",
          "type": "uint256"
        }
      ],
      "stateMutability": "view",
      "type": "function",
      "constant": true
    },
    {
      "inputs": [
        {
          "internalType": "bytes32",
          "name": "_hashID",
          "type": "bytes32"
        },
        {
          "internalType": "bytes32",
          "name": "_hashTest",
          "type": "bytes32"
        },
        {
          "internalType": "address",
          "name": "_userAddress",
          "type": "address"
        }
      ],
      "name": "verificationTest",
      "outputs": [
        {
          "internalType": "bool",
          "name": "result",
          "type": "bool"
        },
        {
          "internalType": "uint256",
          "name": "time",
          "type": "uint256"
        },
        {
          "internalType": "bool",
          "name": "positivity",
          "type": "bool"
        }
      ],
      "stateMutability": "view",
      "type": "function",
      "constant": true
    }
  ],
  "bytecode": "0x608060405234801561001057600080fd5b50600061001b61006a565b600080546001600160a01b0319166001600160a01b0383169081178255604051929350917f8be0079c531659141344cd1fd0a4f28419497f9722a3daafe3b4186f6b6457e0908290a35061006e565b3390565b610b898061007d6000396000f3fe608060405234801561001057600080fd5b50600436106100cf5760003560e01c8063ace82ce91161008c578063ca55e4de11610066578063ca55e4de146101ab578063e3db5076146101be578063f2fde38b146101d1578063f97d9fc1146101e4576100cf565b8063ace82ce914610165578063bdd3024714610185578063ca3106ae14610198576100cf565b80630f76488b146100d457806344a8f611146100fe5780635c81e55214610113578063715018a61461013557806375fed8d41461013d5780638da5cb5b14610150575b600080fd5b6100e76100e236600461092c565b6101f7565b6040516100f59291906109ca565b60405180910390f35b61011161010c366004610960565b610294565b005b61012661012136600461092c565b610376565b6040516100f5939291906109da565b610111610426565b61011161014b36600461090b565b6104af565b610158610542565b6040516100f591906109ab565b61017861017336600461090b565b610551565b6040516100f591906109bf565b61011161019336600461090b565b610566565b6101786101a636600461090b565b6105fd565b6101116101b936600461092c565b610612565b6101116101cc36600461090b565b61070f565b6101116101df36600461090b565b6107a0565b6101116101f236600461090b565b610860565b6001600160a01b038116600090815260036020908152604080832086845290915281205481908414801561025057506001600160a01b038316600090815260036020908152604080832088845290915290206001015415155b156102855750506001600160a01b0381166000908152600360209081526040808320868452909152902060019081015461028c565b5060009050805b935093915050565b3360009081526002602052604090205460ff1615156001146102d15760405162461bcd60e51b81526004016102c890610ade565b60405180910390fd5b604080516060810182528481524260208083018281528615158486019081526001600160a01b0387166000818152600485528781208c8252909452928690209451855590516001850155516002909301805460ff19169315159390931790925591513391907f23a066051b1a4d4c024f5f80b7178456a883bf9e376a20a4a93a0aa0199734949061036790889086908990610a02565b60405180910390a35050505050565b6001600160a01b038116600090815260046020908152604080832086845290915281205481908190851480156103d157506001600160a01b038416600090815260046020908152604080832089845290915290206001015415155b15610413575050506001600160a01b0381166000908152600460209081526040808320868452909152902060018082015460029092015490919060ff1661041d565b5060009150819050805b93509350939050565b61042e6108eb565b6001600160a01b031661043f610542565b6001600160a01b0316146104655760405162461bcd60e51b81526004016102c890610b15565b600080546040516001600160a01b03909116907f8be0079c531659141344cd1fd0a4f28419497f9722a3daafe3b4186f6b6457e0908390a3600080546001600160a01b0319169055565b3360009081526001602081905260409091205460ff161515146104e45760405162461bcd60e51b81526004016102c890610a1a565b6001600160a01b03811660008181526002602052604090819020805460ff19169055513391907fc616c69ab793ecb27baed95224b13fddd5e066054ff98e57142dae1a0e78fb5090610537904290610b4a565b60405180910390a350565b6000546001600160a01b031690565b60016020526000908152604090205460ff1681565b61056e6108eb565b6001600160a01b031661057f610542565b6001600160a01b0316146105a55760405162461bcd60e51b81526004016102c890610b15565b6001600160a01b038116600081815260016020819052604091829020805460ff19169091179055513391907f7e51bf9e7b198edc727262a7a3d711bd89c0b993f484ade22606a4c494652f0290610537904290610b4a565b60026020526000908152604090205460ff1681565b3360009081526002602052604090205460ff1615156001146106465760405162461bcd60e51b81526004016102c890610ade565b6001600160a01b03811660009081526003602090815260408083208684529091529020600101541561068a5760405162461bcd60e51b81526004016102c890610a97565b6040805180820182528381524260208083018281526001600160a01b0386166000818152600384528681208a825290935291859020935184555160019093019290925591513391907feece2048a963f47917bc07cfe574eb0f84d13161a60c35df2fd8ca19745c384d9061070190879086906109f4565b60405180910390a350505050565b6107176108eb565b6001600160a01b0316610728610542565b6001600160a01b03161461074e5760405162461bcd60e51b81526004016102c890610b15565b6001600160a01b03811660008181526001602052604090819020805460ff19169055513391907e745d40b118cba8aaeb86f6b23619cef34ac6582c322db5d972fe50195cbdc890610537904290610b4a565b6107a86108eb565b6001600160a01b03166107b9610542565b6001600160a01b0316146107df5760405162461bcd60e51b81526004016102c890610b15565b6001600160a01b0381166108055760405162461bcd60e51b81526004016102c890610a51565b600080546040516001600160a01b03808516939216917f8be0079c531659141344cd1fd0a4f28419497f9722a3daafe3b4186f6b6457e091a3600080546001600160a01b0319166001600160a01b0392909216919091179055565b3360009081526001602081905260409091205460ff161515146108955760405162461bcd60e51b81526004016102c890610a1a565b6001600160a01b03811660008181526002602052604090819020805460ff19166001179055513391907fda56da187d7c435e24a2fdb8588508194baf9139721a9f6f3cf41264c222d3c790610537904290610b4a565b3390565b80356001600160a01b038116811461090657600080fd5b919050565b60006020828403121561091c578081fd5b610925826108ef565b9392505050565b600080600060608486031215610940578182fd5b8335925060208401359150610957604085016108ef565b90509250925092565b60008060008060808587031215610975578081fd5b843593506020850135925060408501358015158114610992578182fd5b91506109a0606086016108ef565b905092959194509250565b6001600160a01b0391909116815260200190565b901515815260200190565b9115158252602082015260400190565b921515835260208301919091521515604082015260600190565b918252602082015260400190565b92835260208301919091521515604082015260600190565b6020808252601d908201527f4f6e6c79204d696e65737472792063616e20616464206e657720487562000000604082015260600190565b60208082526026908201527f4f776e61626c653a206e6577206f776e657220697320746865207a65726f206160408201526564647265737360d01b606082015260800190565b60208082526027908201527f56616363696e6520697320616c7265616479207375626d697420666f7220746860408201526634b9903ab9b2b960c91b606082015260800190565b6020808252601d908201527f4f6e6c79204875622063616e2063616c6c2074686973206d6574686f64000000604082015260600190565b6020808252818101527f4f776e61626c653a2063616c6c6572206973206e6f7420746865206f776e6572604082015260600190565b9081526020019056fea2646970667358221220aa38e3ae88926d25ca2585ca54ea649541f9551dd9743dbf882069b7ccefa58764736f6c63430008000033",
  "immutableReferences": {},
  "source": "// SPDX-License-Identifier: GPL-3.0\npragma solidity  ^0.8.0;\nimport \"@openzeppelin/contracts/access/Ownable.sol\";\n\n///@title contract for covid healthy documentation passport\n///@author Davide Medaglia\ncontract Covid is Ownable {\n    //@ministries: if minestry is set address_minestry->true, otherwise address_minestry->false\n    mapping (address => bool) public ministries;\n    //@hubs: if hubs is set address_hub->true, otherwise address_hub->false\n    mapping (address => bool) public hubs;\n\n    struct Vaccine{\n        bytes32 hash;\n        uint time;\n    }\n\n    struct Test{\n        bytes32 hash;\n        uint time;\n        bool positivity;\n    }    \n    \n    mapping (address => mapping(bytes32 => Vaccine)) private user_vaccine;   //map: address user-> map(hash DocumentID => Vaccine)\n    mapping (address => mapping(bytes32 => Test)) private  user_test;        //map: map: address user-> map(hash DocumentID => Test)\n    \n    event testPublish(address indexed user, address indexed from, bytes32 hashTest, uint time, bool positivity);\n    event vaccinePublish(address indexed user, address indexed from, bytes32 hashCertificate, uint time);\n    event newHub(address indexed hubAddress, address indexed from, uint time);\n    event newMinestry(address indexed minestryAddress, address indexed from, uint time);\n    event deletedHub(address indexed hubAddres, address indexed from, uint time);\n    event deletedMinestry(address indexed minestryAddres, address indexed from, uint time);\n    \n    modifier onlyMinestry() {\n        require(ministries[msg.sender]==true, \"Only Minestry can add new Hub\");\n        _;\n    }\n    \n    modifier onlyHub(){\n        require(hubs[msg.sender]==true, \"Only Hub can call this method\");\n        _;\n    }\n    \n    function addMinestry(address _ministryAddress) public onlyOwner{\n        ministries[_ministryAddress] = true;\n        emit newMinestry(_ministryAddress, msg.sender, block.timestamp);\n    }    \n\n    function removeMinestry(address _ministryAddress) public onlyOwner{\n        ministries[_ministryAddress] = false;\n        emit deletedMinestry(_ministryAddress, msg.sender, block.timestamp);\n    }    \n    \n    function addHub(address _hubAddress) public onlyMinestry{\n        hubs[_hubAddress] = true;\n        emit newHub(_hubAddress, msg.sender, block.timestamp);\n    }\n\n    function removeHub(address _hubAddress) public onlyMinestry{\n        hubs[_hubAddress] = false;\n        emit deletedHub(_hubAddress, msg.sender, block.timestamp);\n    }\n    \n    function approveTest(bytes32 _hashID, bytes32 _hashTest, bool _positivity,  address _userAddress) public onlyHub{\n        uint time = block.timestamp;\n        user_test[_userAddress][_hashID] = Test(_hashTest, time, _positivity);\n        emit testPublish(_userAddress, msg.sender, _hashTest, time, _positivity);\n        }\n    \n    function approveVaccine(bytes32 _hashID, bytes32 _hashCertificate, address _userAddress) public onlyHub{\n        require(user_vaccine[_userAddress][_hashID].time == 0,\"Vaccine is already submit for this user\");\n            uint time = block.timestamp;\n            user_vaccine[_userAddress][_hashID] = Vaccine(_hashCertificate, time);\n            emit vaccinePublish(_userAddress, msg.sender, _hashCertificate, time);\n    }\n\n    //@return bool result: true if user and document hash correspond\n    //@return uint time: time when transaction is mined\n    function verificationVaccine(bytes32 _hashID, bytes32 _hashCertificate, address _userAddress) external view returns(bool result, uint time){\n        if(user_vaccine[_userAddress][_hashID].hash == _hashCertificate && user_vaccine[_userAddress][_hashID].time > 0) {\n            return (true, user_vaccine[_userAddress][_hashID].time);\n        }\n        return (false, 0);\n    }\n    \n    //@return bool result: true if user and document hash correspond\n    //@return uint time: time when transaction is mined\n    //@return bool positivity: return true if user is positive to covid, otherwise return false\n    function verificationTest(bytes32 _hashID, bytes32 _hashTest, address _userAddress) external view returns(bool result, uint time, bool positivity){\n        //address user = checkIdentity(_hashID);\n        if(user_test[_userAddress][_hashID].hash == _hashTest && user_test[_userAddress][_hashID].time > 0){\n                return (true, user_test[_userAddress][_hashID].time, user_test[_userAddress][_hashID].positivity);\n            \n        }\n        return (false, 0, false);\n    }\n}",
  "sourcePath": "/home/aca/Scrivania/Blockchain/project/contracts/Covid.sol",
  "compiler": {
    "name": "solc",
    "version": "0.8.0+commit.c7dfd78e.Emscripten.clang"
  },
  "schemaVersion": "3.3.4",
  "updatedAt": "2021-05-11T21:06:19.881Z",
  "networkType": "ethereum",
  "devdoc": {
    "author": "Davide Medaglia",
    "kind": "dev",
    "methods": {
      "owner()": {
        "details": "Returns the address of the current owner."
      },
      "renounceOwnership()": {
        "details": "Leaves the contract without owner. It will not be possible to call `onlyOwner` functions anymore. Can only be called by the current owner. NOTE: Renouncing ownership will leave the contract without an owner, thereby removing any functionality that is only available to the owner."
      },
      "transferOwnership(address)": {
        "details": "Transfers ownership of the contract to a new account (`newOwner`). Can only be called by the current owner."
      }
    },
    "title": "contract for covid healthy documentation passport",
    "version": 1
  },
  "userdoc": {
    "kind": "user",
    "methods": {},
    "version": 1
  }
}