{
  "contractName": "Covid",
  "abi": [
    {
      "anonymous": false,
      "inputs": [
        {
          "indexed": true,
          "internalType": "address",
          "name": "previousOwner",
          "type": "address"
        },
        {
          "indexed": true,
          "internalType": "address",
          "name": "newOwner",
          "type": "address"
        }
      ],
      "name": "OwnershipTransferred",
      "type": "event"
    },
    {
      "anonymous": false,
      "inputs": [
        {
          "indexed": true,
          "internalType": "address",
          "name": "hubAddress",
          "type": "address"
        },
        {
          "indexed": true,
          "internalType": "address",
          "name": "from",
          "type": "address"
        },
        {
          "indexed": false,
          "internalType": "uint256",
          "name": "time",
          "type": "uint256"
        }
      ],
      "name": "newHub",
      "type": "event"
    },
    {
      "anonymous": false,
      "inputs": [
        {
          "indexed": true,
          "internalType": "address",
          "name": "ministryAddress",
          "type": "address"
        },
        {
          "indexed": true,
          "internalType": "address",
          "name": "from",
          "type": "address"
        },
        {
          "indexed": false,
          "internalType": "uint256",
          "name": "time",
          "type": "uint256"
        }
      ],
      "name": "newMinestry",
      "type": "event"
    },
    {
      "anonymous": false,
      "inputs": [
        {
          "indexed": true,
          "internalType": "address",
          "name": "userAddress",
          "type": "address"
        },
        {
          "indexed": false,
          "internalType": "bytes32",
          "name": "hashID",
          "type": "bytes32"
        },
        {
          "indexed": false,
          "internalType": "uint256",
          "name": "time",
          "type": "uint256"
        },
        {
          "indexed": false,
          "internalType": "bool",
          "name": "result",
          "type": "bool"
        }
      ],
      "name": "newUser",
      "type": "event"
    },
    {
      "anonymous": false,
      "inputs": [
        {
          "indexed": true,
          "internalType": "address",
          "name": "user",
          "type": "address"
        },
        {
          "indexed": true,
          "internalType": "address",
          "name": "from",
          "type": "address"
        },
        {
          "indexed": false,
          "internalType": "bytes32",
          "name": "hash",
          "type": "bytes32"
        },
        {
          "indexed": false,
          "internalType": "uint256",
          "name": "time",
          "type": "uint256"
        },
        {
          "indexed": false,
          "internalType": "bool",
          "name": "result",
          "type": "bool"
        },
        {
          "indexed": false,
          "internalType": "bool",
          "name": "positivity",
          "type": "bool"
        }
      ],
      "name": "testPublish",
      "type": "event"
    },
    {
      "anonymous": false,
      "inputs": [
        {
          "indexed": true,
          "internalType": "address",
          "name": "user",
          "type": "address"
        },
        {
          "indexed": true,
          "internalType": "address",
          "name": "from",
          "type": "address"
        },
        {
          "indexed": false,
          "internalType": "bytes32",
          "name": "hash",
          "type": "bytes32"
        },
        {
          "indexed": false,
          "internalType": "uint256",
          "name": "time",
          "type": "uint256"
        },
        {
          "indexed": false,
          "internalType": "bool",
          "name": "result",
          "type": "bool"
        }
      ],
      "name": "vaccinoPublish",
      "type": "event"
    },
    {
      "inputs": [],
      "name": "owner",
      "outputs": [
        {
          "internalType": "address",
          "name": "",
          "type": "address"
        }
      ],
      "stateMutability": "view",
      "type": "function",
      "constant": true
    },
    {
      "inputs": [],
      "name": "renounceOwnership",
      "outputs": [],
      "stateMutability": "nonpayable",
      "type": "function"
    },
    {
      "inputs": [
        {
          "internalType": "address",
          "name": "newOwner",
          "type": "address"
        }
      ],
      "name": "transferOwnership",
      "outputs": [],
      "stateMutability": "nonpayable",
      "type": "function"
    },
    {
      "inputs": [
        {
          "internalType": "address",
          "name": "_ministryAddress",
          "type": "address"
        }
      ],
      "name": "addMinestry",
      "outputs": [],
      "stateMutability": "nonpayable",
      "type": "function"
    },
    {
      "inputs": [
        {
          "internalType": "address",
          "name": "_hubAddress",
          "type": "address"
        }
      ],
      "name": "addHub",
      "outputs": [],
      "stateMutability": "nonpayable",
      "type": "function"
    },
    {
      "inputs": [
        {
          "internalType": "bytes32",
          "name": "_hashID",
          "type": "bytes32"
        }
      ],
      "name": "checkIdentity",
      "outputs": [
        {
          "internalType": "address",
          "name": "",
          "type": "address"
        }
      ],
      "stateMutability": "view",
      "type": "function",
      "constant": true
    },
    {
      "inputs": [
        {
          "internalType": "bytes32",
          "name": "_hashID",
          "type": "bytes32"
        },
        {
          "internalType": "address",
          "name": "_userAddress",
          "type": "address"
        }
      ],
      "name": "addUser",
      "outputs": [],
      "stateMutability": "nonpayable",
      "type": "function"
    },
    {
      "inputs": [
        {
          "internalType": "bytes32",
          "name": "_hashID",
          "type": "bytes32"
        },
        {
          "internalType": "bytes32",
          "name": "_hashTest",
          "type": "bytes32"
        },
        {
          "internalType": "bool",
          "name": "_positivity",
          "type": "bool"
        },
        {
          "internalType": "address",
          "name": "_user",
          "type": "address"
        }
      ],
      "name": "approveTest",
      "outputs": [],
      "stateMutability": "nonpayable",
      "type": "function"
    },
    {
      "inputs": [
        {
          "internalType": "bytes32",
          "name": "_hashID",
          "type": "bytes32"
        },
        {
          "internalType": "bytes32",
          "name": "_hashCertificate",
          "type": "bytes32"
        },
        {
          "internalType": "address",
          "name": "_user",
          "type": "address"
        }
      ],
      "name": "approveVaccine",
      "outputs": [],
      "stateMutability": "nonpayable",
      "type": "function"
    },
    {
      "inputs": [
        {
          "internalType": "bytes32",
          "name": "_hashID",
          "type": "bytes32"
        },
        {
          "internalType": "bytes32",
          "name": "_hashCertificate",
          "type": "bytes32"
        },
        {
          "internalType": "address",
          "name": "_user",
          "type": "address"
        }
      ],
      "name": "verificationVaccine",
      "outputs": [
        {
          "internalType": "bool",
          "name": "",
          "type": "bool"
        },
        {
          "internalType": "uint256",
          "name": "",
          "type": "uint256"
        }
      ],
      "stateMutability": "view",
      "type": "function",
      "constant": true
    },
    {
      "inputs": [
        {
          "internalType": "bytes32",
          "name": "_hashID",
          "type": "bytes32"
        },
        {
          "internalType": "bytes32",
          "name": "_hashTest",
          "type": "bytes32"
        },
        {
          "internalType": "address",
          "name": "_user",
          "type": "address"
        }
      ],
      "name": "verificationTest",
      "outputs": [
        {
          "internalType": "bool",
          "name": "",
          "type": "bool"
        },
        {
          "internalType": "uint256",
          "name": "",
          "type": "uint256"
        },
        {
          "internalType": "bool",
          "name": "",
          "type": "bool"
        }
      ],
      "stateMutability": "view",
      "type": "function",
      "constant": true
    }
  ],
  "bytecode": "0x608060405234801561001057600080fd5b506000610024640100000000610073810204565b60008054600160a060020a031916600160a060020a0383169081178255604051929350917f8be0079c531659141344cd1fd0a4f28419497f9722a3daafe3b4186f6b6457e0908290a350610077565b3390565b610b34806100866000396000f3fe608060405234801561001057600080fd5b50600436106100c6576000357c0100000000000000000000000000000000000000000000000000000000900480638da5cb5b1161008e5780638da5cb5b14610154578063aa9c54261461015c578063bdd302471461016f578063ca55e4de14610182578063f2fde38b14610195578063f97d9fc1146101a8576100c6565b80630f76488b146100cb578063218dd3dd146100f557806344a8f611146101155780635c81e5521461012a578063715018a61461014c575b600080fd5b6100de6100d936600461096f565b6101bb565b6040516100ec929190610a02565b60405180910390f35b61010861010336600461092c565b61023d565b6040516100ec91906109ee565b6101286101233660046109a3565b61025b565b005b61013d61013836600461096f565b6103a4565b6040516100ec93929190610a12565b610128610438565b6101086104da565b61012861016a366004610944565b6104e9565b61012861017d36600461090b565b6105e1565b61012861019036600461096f565b610686565b6101286101a336600461090b565b6107a5565b6101286101b636600461090b565b610878565b60008060006101c98661023d565b905083600160a060020a031681600160a060020a0316141561022c57600160a060020a03811660009081526003602052604090205485141561022c57600160a060020a031660009081526003602052604090206001908101549092509050610235565b60008092509250505b935093915050565b600081815260056020526040902054600160a060020a03165b919050565b3360009081526002602052604090205460ff16151560011461027c57600080fd5b60006102878561023d565b905081600160a060020a031681600160a060020a0316141561034a5760408051606081018252858152426020808301828152871515848601908152600160a060020a03878116600090815260049094529286902094518555905160018086019190915590516002909401805460ff191694151594909417909355925190923392908616917f26637d4312d18f753e22e663f3256beea7f6c5860b60fbc4e576be7f0bcde06a9161033c918a9187918b90610a44565b60405180910390a35061039d565b33600160a060020a031682600160a060020a03167f26637d4312d18f753e22e663f3256beea7f6c5860b60fbc4e576be7f0bcde06a86600080886040516103949493929190610a44565b60405180910390a35b5050505050565b6000806000806103b38761023d565b905084600160a060020a031681600160a060020a0316141561042257600160a060020a03811660009081526004602052604090205486141561042257600160a060020a0316600090815260046020526040902060018181015460029092015490945090925060ff16905061042f565b6000806000935093509350505b93509350939050565b6104406108f0565b600160a060020a03166104516104da565b600160a060020a0316146104835760405160e560020a62461bcd02815260040161047a90610ac0565b60405180910390fd5b60008054604051600160a060020a03909116907f8be0079c531659141344cd1fd0a4f28419497f9722a3daafe3b4186f6b6457e0908390a36000805473ffffffffffffffffffffffffffffffffffffffff19169055565b600054600160a060020a031690565b8033600160a060020a038216146104ff57600080fd5b600083815260056020526040902054600160a060020a03166105955760008381526005602052604090819020805473ffffffffffffffffffffffffffffffffffffffff1916600160a060020a03851690811790915590517fe9096b241c0275a622b785993b322161e06cdb8ab9ff37784bb75645a69960f4906105889086904290600190610a2c565b60405180910390a26105dc565b81600160a060020a03167fe9096b241c0275a622b785993b322161e06cdb8ab9ff37784bb75645a69960f4846000806040516105d393929190610a2c565b60405180910390a25b505050565b6105e96108f0565b600160a060020a03166105fa6104da565b600160a060020a0316146106235760405160e560020a62461bcd02815260040161047a90610ac0565b600160a060020a038116600081815260016020819052604091829020805460ff19169091179055513391907f7e51bf9e7b198edc727262a7a3d711bd89c0b993f484ade22606a4c494652f029061067b904290610af5565b60405180910390a350565b3360009081526002602052604090205460ff1615156001146106a757600080fd5b60006106b28461023d565b905081600160a060020a031681600160a060020a0316141561074e57604080518082018252848152426020808301828152600160a060020a0380871660009081526003909352918590209351845551600193840155925190923392908616917f3613388c1f79f05281f0e0907726807138bbeabeb691faf6bb43a130ae7f1505916107409189918791610a2c565b60405180910390a35061079f565b33600160a060020a031682600160a060020a03167f3613388c1f79f05281f0e0907726807138bbeabeb691faf6bb43a130ae7f15058560008060405161079693929190610a2c565b60405180910390a35b50505050565b6107ad6108f0565b600160a060020a03166107be6104da565b600160a060020a0316146107e75760405160e560020a62461bcd02815260040161047a90610ac0565b600160a060020a0381166108105760405160e560020a62461bcd02815260040161047a90610a63565b60008054604051600160a060020a03808516939216917f8be0079c531659141344cd1fd0a4f28419497f9722a3daafe3b4186f6b6457e091a36000805473ffffffffffffffffffffffffffffffffffffffff1916600160a060020a0392909216919091179055565b3360009081526001602081905260409091205460ff1615151461089a57600080fd5b600160a060020a03811660008181526002602052604090819020805460ff19166001179055513391907fda56da187d7c435e24a2fdb8588508194baf9139721a9f6f3cf41264c222d3c79061067b904290610af5565b3390565b8035600160a060020a038116811461025657600080fd5b60006020828403121561091c578081fd5b610925826108f4565b9392505050565b60006020828403121561093d578081fd5b5035919050565b60008060408385031215610956578081fd5b82359150610966602084016108f4565b90509250929050565b600080600060608486031215610983578081fd5b833592506020840135915061099a604085016108f4565b90509250925092565b600080600080608085870312156109b8578081fd5b8435935060208501359250604085013580151581146109d5578182fd5b91506109e3606086016108f4565b905092959194509250565b600160a060020a0391909116815260200190565b9115158252602082015260400190565b921515835260208301919091521515604082015260600190565b92835260208301919091521515604082015260600190565b9384526020840192909252151560408301521515606082015260800190565b60208082526026908201527f4f776e61626c653a206e6577206f776e657220697320746865207a65726f206160408201527f6464726573730000000000000000000000000000000000000000000000000000606082015260800190565b6020808252818101527f4f776e61626c653a2063616c6c6572206973206e6f7420746865206f776e6572604082015260600190565b9081526020019056fea2646970667358221220a06e6f7dc96ae605713d9388a05299e2d202dab7888c963be29bb08714b1068a64736f6c63430008000033",
  "immutableReferences": {},
  "source": "// SPDX-License-Identifier: GPL-3.0\npragma solidity  >=0.8.0;\nimport \"@openzeppelin/contracts/access/Ownable.sol\";\n\n///@title contract for covid healthy documentation passport\n///@author Davide Medaglia\ncontract Covid is Ownable {\n    //@ministries: if minestry is set address_minestry->true, otherwise address_minestry->false\n    mapping (address => bool) private ministries;\n    //@hubs: if hubs is set address_hub->true, otherwise address_hub->false\n    mapping (address => bool) private hubs;\n\n    struct Vaccine{\n        bytes32 hash;\n        uint time;\n    }\n\n    struct Test{\n        bytes32 hash;\n        uint time;\n        bool positivity;\n    }    \n    \n    mapping(address => Vaccine) private user_Vaccine;   //map: address user-> hash document\n    mapping(address => Test) private user_Test;         //map: address user-> hash document\n    mapping(bytes32 => address) private user_address;   //map: hash document user-> address user\n    \n    event testPublish(address indexed user, address indexed from, bytes32 hash, uint time, bool result, bool positivity);\n    event vaccinoPublish(address indexed user, address indexed from, bytes32 hash, uint time, bool result);\n    event newHub(address indexed hubAddress, address indexed from, uint time);\n    event newMinestry(address indexed ministryAddress, address indexed from, uint time);\n    event newUser(address indexed userAddress, bytes32 hashID, uint time, bool result);\n    \n    modifier onlyMinestry() {\n        require(ministries[msg.sender] ==true);\n        _;\n    }\n    \n    modifier onlyHub(){\n        require(hubs[msg.sender]==true);\n        _;\n    }\n    \n    modifier onlySender(address _sender){\n        require(msg.sender == _sender);\n        _;\n    }\n    /* \n    */\n    function addMinestry(address _ministryAddress) public onlyOwner{\n        ministries[_ministryAddress] = true;\n        emit newMinestry(_ministryAddress, msg.sender, block.timestamp);\n    }    \n    \n    function addHub(address _hubAddress) public onlyMinestry{\n        hubs[_hubAddress] = true;\n        emit newHub(_hubAddress, msg.sender, block.timestamp);\n    }\n    \n    \n    function checkIdentity(bytes32 _hashID) public view returns(address) {\n        return user_address[_hashID];\n    }\n    \n    function addUser(bytes32 _hashID, address _userAddress) public onlySender(_userAddress){\n        if(user_address[_hashID] == address(0)){\n            user_address[_hashID] = _userAddress;\n            emit newUser(_userAddress, _hashID, block.timestamp, true);\n        }\n        else{\n            emit newUser(_userAddress,_hashID, 0, false);            \n        }\n    }\n\n    function approveTest(bytes32 _hashID, bytes32 _hashTest, bool _positivity,  address _user) public onlyHub{\n        address user = checkIdentity(_hashID);\n        if (user == _user){\n            uint time = block.timestamp;\n            user_Test[user] = Test(_hashTest, time, _positivity);\n            emit testPublish(_user, msg.sender, _hashTest, time, true, _positivity);\n        }\n        else{\n            emit testPublish(_user, msg.sender, _hashTest, 0, false, _positivity);\n        }\n    }\n    \n    function approveVaccine(bytes32 _hashID, bytes32 _hashCertificate, address _user) public onlyHub{\n        address user = checkIdentity(_hashID);\n        if (user == _user){\n            uint time = block.timestamp;\n            user_Vaccine[user] = Vaccine(_hashCertificate, time);\n            emit vaccinoPublish(_user, msg.sender, _hashCertificate, time, true);\n        }\n        else{\n            emit vaccinoPublish(_user, msg.sender, _hashCertificate, 0, false);\n        }\n    }\n\n    ///@return bool: true if user and document hash correspond\n    ///@return uint: time when transaction is mined\n    function verificationVaccine(bytes32 _hashID, bytes32 _hashCertificate, address _user) external view returns(bool, uint){\n        address user = checkIdentity(_hashID);\n        if(user == _user) {\n            if(user_Vaccine[user].hash == _hashCertificate){\n                return (true, user_Vaccine[user].time);\n            }\n        }\n        return (false, 0);\n    }\n    \n    ///@return bool: true if user and document hash correspond\n    ///@return uint: time when transaction is mined\n    ///@return bool: return true if user is positive to covid, otherwise return false\n    function verificationTest(bytes32 _hashID, bytes32 _hashTest, address _user) external view returns(bool, uint, bool){\n        address user = checkIdentity(_hashID);\n        if(user == _user) {\n            if(user_Test[user].hash == _hashTest){\n                return (true, user_Test[user].time, user_Test[user].positivity);\n            }\n        }\n        return (false, 0, false);\n    }\n}",
  "sourcePath": "/home/aca/Scrivania/Blockchain/project/contracts/Covid.sol",
  "compiler": {
    "name": "solc",
    "version": "0.8.0+commit.c7dfd78e.Emscripten.clang"
  },
  "schemaVersion": "3.3.4",
  "updatedAt": "2021-04-22T08:51:20.665Z",
  "networkType": "ethereum",
  "devdoc": {
    "author": "Davide Medaglia",
    "kind": "dev",
    "methods": {
      "owner()": {
        "details": "Returns the address of the current owner."
      },
      "renounceOwnership()": {
        "details": "Leaves the contract without owner. It will not be possible to call `onlyOwner` functions anymore. Can only be called by the current owner. NOTE: Renouncing ownership will leave the contract without an owner, thereby removing any functionality that is only available to the owner."
      },
      "transferOwnership(address)": {
        "details": "Transfers ownership of the contract to a new account (`newOwner`). Can only be called by the current owner."
      },
      "verificationTest(bytes32,bytes32,address)": {
        "returns": {
          "_0": "bool: true if user and document hash correspond",
          "_1": "uint: time when transaction is mined",
          "_2": "bool: return true if user is positive to covid, otherwise return false"
        }
      },
      "verificationVaccine(bytes32,bytes32,address)": {
        "returns": {
          "_0": "bool: true if user and document hash correspond",
          "_1": "uint: time when transaction is mined"
        }
      }
    },
    "title": "contract for covid healthy documentation passport",
    "version": 1
  },
  "userdoc": {
    "kind": "user",
    "methods": {},
    "version": 1
  }
}