{
  "contractName": "Covid",
  "abi": [
    {
      "anonymous": false,
      "inputs": [
        {
          "indexed": true,
          "internalType": "address",
          "name": "previousOwner",
          "type": "address"
        },
        {
          "indexed": true,
          "internalType": "address",
          "name": "newOwner",
          "type": "address"
        }
      ],
      "name": "OwnershipTransferred",
      "type": "event"
    },
    {
      "anonymous": false,
      "inputs": [
        {
          "indexed": true,
          "internalType": "address",
          "name": "hubAddres",
          "type": "address"
        },
        {
          "indexed": true,
          "internalType": "address",
          "name": "from",
          "type": "address"
        },
        {
          "indexed": false,
          "internalType": "uint256",
          "name": "time",
          "type": "uint256"
        }
      ],
      "name": "deletedHub",
      "type": "event"
    },
    {
      "anonymous": false,
      "inputs": [
        {
          "indexed": true,
          "internalType": "address",
          "name": "minestryAddres",
          "type": "address"
        },
        {
          "indexed": true,
          "internalType": "address",
          "name": "from",
          "type": "address"
        },
        {
          "indexed": false,
          "internalType": "uint256",
          "name": "time",
          "type": "uint256"
        }
      ],
      "name": "deletedMinestry",
      "type": "event"
    },
    {
      "anonymous": false,
      "inputs": [
        {
          "indexed": true,
          "internalType": "address",
          "name": "hubAddress",
          "type": "address"
        },
        {
          "indexed": true,
          "internalType": "address",
          "name": "from",
          "type": "address"
        },
        {
          "indexed": false,
          "internalType": "uint256",
          "name": "time",
          "type": "uint256"
        }
      ],
      "name": "newHub",
      "type": "event"
    },
    {
      "anonymous": false,
      "inputs": [
        {
          "indexed": true,
          "internalType": "address",
          "name": "minestryAddress",
          "type": "address"
        },
        {
          "indexed": true,
          "internalType": "address",
          "name": "from",
          "type": "address"
        },
        {
          "indexed": false,
          "internalType": "uint256",
          "name": "time",
          "type": "uint256"
        }
      ],
      "name": "newMinestry",
      "type": "event"
    },
    {
      "anonymous": false,
      "inputs": [
        {
          "indexed": true,
          "internalType": "address",
          "name": "user",
          "type": "address"
        },
        {
          "indexed": true,
          "internalType": "address",
          "name": "from",
          "type": "address"
        },
        {
          "indexed": false,
          "internalType": "bytes32",
          "name": "hashTest",
          "type": "bytes32"
        },
        {
          "indexed": false,
          "internalType": "uint256",
          "name": "time",
          "type": "uint256"
        },
        {
          "indexed": false,
          "internalType": "bool",
          "name": "positivity",
          "type": "bool"
        }
      ],
      "name": "testPublish",
      "type": "event"
    },
    {
      "anonymous": false,
      "inputs": [
        {
          "indexed": true,
          "internalType": "address",
          "name": "user",
          "type": "address"
        },
        {
          "indexed": true,
          "internalType": "address",
          "name": "from",
          "type": "address"
        },
        {
          "indexed": false,
          "internalType": "bytes32",
          "name": "hashCertificate",
          "type": "bytes32"
        },
        {
          "indexed": false,
          "internalType": "uint256",
          "name": "time",
          "type": "uint256"
        }
      ],
      "name": "vaccinePublish",
      "type": "event"
    },
    {
      "inputs": [
        {
          "internalType": "address",
          "name": "",
          "type": "address"
        }
      ],
      "name": "hubs",
      "outputs": [
        {
          "internalType": "bool",
          "name": "",
          "type": "bool"
        }
      ],
      "stateMutability": "view",
      "type": "function",
      "constant": true
    },
    {
      "inputs": [
        {
          "internalType": "address",
          "name": "",
          "type": "address"
        }
      ],
      "name": "ministries",
      "outputs": [
        {
          "internalType": "bool",
          "name": "",
          "type": "bool"
        }
      ],
      "stateMutability": "view",
      "type": "function",
      "constant": true
    },
    {
      "inputs": [],
      "name": "owner",
      "outputs": [
        {
          "internalType": "address",
          "name": "",
          "type": "address"
        }
      ],
      "stateMutability": "view",
      "type": "function",
      "constant": true
    },
    {
      "inputs": [],
      "name": "renounceOwnership",
      "outputs": [],
      "stateMutability": "nonpayable",
      "type": "function"
    },
    {
      "inputs": [
        {
          "internalType": "address",
          "name": "newOwner",
          "type": "address"
        }
      ],
      "name": "transferOwnership",
      "outputs": [],
      "stateMutability": "nonpayable",
      "type": "function"
    },
    {
      "inputs": [
        {
          "internalType": "address",
          "name": "_ministryAddress",
          "type": "address"
        }
      ],
      "name": "addMinestry",
      "outputs": [],
      "stateMutability": "nonpayable",
      "type": "function"
    },
    {
      "inputs": [
        {
          "internalType": "address",
          "name": "_ministryAddress",
          "type": "address"
        }
      ],
      "name": "removeMinestry",
      "outputs": [],
      "stateMutability": "nonpayable",
      "type": "function"
    },
    {
      "inputs": [
        {
          "internalType": "address",
          "name": "_hubAddress",
          "type": "address"
        }
      ],
      "name": "addHub",
      "outputs": [],
      "stateMutability": "nonpayable",
      "type": "function"
    },
    {
      "inputs": [
        {
          "internalType": "address",
          "name": "_hubAddress",
          "type": "address"
        }
      ],
      "name": "removeHub",
      "outputs": [],
      "stateMutability": "nonpayable",
      "type": "function"
    },
    {
      "inputs": [
        {
          "internalType": "bytes32",
          "name": "_hashID",
          "type": "bytes32"
        },
        {
          "internalType": "bytes32",
          "name": "_hashTest",
          "type": "bytes32"
        },
        {
          "internalType": "bool",
          "name": "_positivity",
          "type": "bool"
        },
        {
          "internalType": "address",
          "name": "_userAddress",
          "type": "address"
        }
      ],
      "name": "approveTest",
      "outputs": [],
      "stateMutability": "nonpayable",
      "type": "function"
    },
    {
      "inputs": [
        {
          "internalType": "bytes32",
          "name": "_hashID",
          "type": "bytes32"
        },
        {
          "internalType": "bytes32",
          "name": "_hashCertificate",
          "type": "bytes32"
        },
        {
          "internalType": "address",
          "name": "_userAddress",
          "type": "address"
        }
      ],
      "name": "approveVaccine",
      "outputs": [],
      "stateMutability": "nonpayable",
      "type": "function"
    },
    {
      "inputs": [
        {
          "internalType": "bytes32",
          "name": "_hashID",
          "type": "bytes32"
        },
        {
          "internalType": "bytes32",
          "name": "_hashCertificate",
          "type": "bytes32"
        },
        {
          "internalType": "address",
          "name": "_userAddress",
          "type": "address"
        }
      ],
      "name": "verificationVaccine",
      "outputs": [
        {
          "internalType": "bool",
          "name": "result",
          "type": "bool"
        },
        {
          "internalType": "uint256",
          "name": "time",
          "type": "uint256"
        }
      ],
      "stateMutability": "view",
      "type": "function",
      "constant": true
    },
    {
      "inputs": [
        {
          "internalType": "bytes32",
          "name": "_hashID",
          "type": "bytes32"
        },
        {
          "internalType": "bytes32",
          "name": "_hashTest",
          "type": "bytes32"
        },
        {
          "internalType": "address",
          "name": "_userAddress",
          "type": "address"
        }
      ],
      "name": "verificationTest",
      "outputs": [
        {
          "internalType": "bool",
          "name": "result",
          "type": "bool"
        },
        {
          "internalType": "uint256",
          "name": "time",
          "type": "uint256"
        },
        {
          "internalType": "bool",
          "name": "positivity",
          "type": "bool"
        }
      ],
      "stateMutability": "view",
      "type": "function",
      "constant": true
    }
  ],
  "bytecode": "0x608060405234801561001057600080fd5b506000610024640100000000610073810204565b60008054600160a060020a031916600160a060020a0383169081178255604051929350917f8be0079c531659141344cd1fd0a4f28419497f9722a3daafe3b4186f6b6457e0908290a350610077565b3390565b610c0b806100866000396000f3fe608060405234801561001057600080fd5b50600436106100ec576000357c010000000000000000000000000000000000000000000000000000000090048063ace82ce9116100a9578063ca55e4de11610083578063ca55e4de146101c8578063e3db5076146101db578063f2fde38b146101ee578063f97d9fc114610201576100ec565b8063ace82ce914610182578063bdd30247146101a2578063ca3106ae146101b5576100ec565b80630f76488b146100f157806344a8f6111461011b5780635c81e55214610130578063715018a61461015257806375fed8d41461015a5780638da5cb5b1461016d575b600080fd5b6101046100ff366004610981565b610214565b604051610112929190610a1f565b60405180910390f35b61012e6101293660046109b5565b6102b1565b005b61014361013e366004610981565b610396565b60405161011293929190610a2f565b61012e610446565b61012e610168366004610960565b6104df565b610175610575565b6040516101129190610a00565b610195610190366004610960565b610584565b6040516101129190610a14565b61012e6101b0366004610960565b610599565b6101956101c3366004610960565b610633565b61012e6101d6366004610981565b610648565b61012e6101e9366004610960565b61074b565b61012e6101fc366004610960565b6107df565b61012e61020f366004610960565b6108b2565b600160a060020a038116600090815260036020908152604080832086845290915281205481908414801561026d5750600160a060020a038316600090815260036020908152604080832088845290915290206001015415155b156102a2575050600160a060020a038116600090815260036020908152604080832086845290915290206001908101546102a9565b5060009050805b935093915050565b3360009081526002602052604090205460ff1615156001146102f15760405160e560020a62461bcd0281526004016102e890610b60565b60405180910390fd5b60408051606081018252848152426020808301828152861515848601908152600160a060020a0387166000818152600485528781208c8252909452928690209451855590516001850155516002909301805460ff19169315159390931790925591513391907f23a066051b1a4d4c024f5f80b7178456a883bf9e376a20a4a93a0aa0199734949061038790889086908990610a57565b60405180910390a35050505050565b600160a060020a038116600090815260046020908152604080832086845290915281205481908190851480156103f15750600160a060020a038416600090815260046020908152604080832089845290915290206001015415155b1561043357505050600160a060020a0381166000908152600460209081526040808320868452909152902060018082015460029092015490919060ff1661043d565b5060009150819050805b93509350939050565b61044e610940565b600160a060020a031661045f610575565b600160a060020a0316146104885760405160e560020a62461bcd0281526004016102e890610b97565b60008054604051600160a060020a03909116907f8be0079c531659141344cd1fd0a4f28419497f9722a3daafe3b4186f6b6457e0908390a36000805473ffffffffffffffffffffffffffffffffffffffff19169055565b3360009081526001602081905260409091205460ff161515146105175760405160e560020a62461bcd0281526004016102e890610a6f565b600160a060020a03811660008181526002602052604090819020805460ff19169055513391907fc616c69ab793ecb27baed95224b13fddd5e066054ff98e57142dae1a0e78fb509061056a904290610bcc565b60405180910390a350565b600054600160a060020a031690565b60016020526000908152604090205460ff1681565b6105a1610940565b600160a060020a03166105b2610575565b600160a060020a0316146105db5760405160e560020a62461bcd0281526004016102e890610b97565b600160a060020a038116600081815260016020819052604091829020805460ff19169091179055513391907f7e51bf9e7b198edc727262a7a3d711bd89c0b993f484ade22606a4c494652f029061056a904290610bcc565b60026020526000908152604090205460ff1681565b3360009081526002602052604090205460ff16151560011461067f5760405160e560020a62461bcd0281526004016102e890610b60565b600160a060020a0381166000908152600360209081526040808320868452909152902060010154156106c65760405160e560020a62461bcd0281526004016102e890610b03565b604080518082018252838152426020808301828152600160a060020a0386166000818152600384528681208a825290935291859020935184555160019093019290925591513391907feece2048a963f47917bc07cfe574eb0f84d13161a60c35df2fd8ca19745c384d9061073d9087908690610a49565b60405180910390a350505050565b610753610940565b600160a060020a0316610764610575565b600160a060020a03161461078d5760405160e560020a62461bcd0281526004016102e890610b97565b600160a060020a03811660008181526001602052604090819020805460ff19169055513391907e745d40b118cba8aaeb86f6b23619cef34ac6582c322db5d972fe50195cbdc89061056a904290610bcc565b6107e7610940565b600160a060020a03166107f8610575565b600160a060020a0316146108215760405160e560020a62461bcd0281526004016102e890610b97565b600160a060020a03811661084a5760405160e560020a62461bcd0281526004016102e890610aa6565b60008054604051600160a060020a03808516939216917f8be0079c531659141344cd1fd0a4f28419497f9722a3daafe3b4186f6b6457e091a36000805473ffffffffffffffffffffffffffffffffffffffff1916600160a060020a0392909216919091179055565b3360009081526001602081905260409091205460ff161515146108ea5760405160e560020a62461bcd0281526004016102e890610a6f565b600160a060020a03811660008181526002602052604090819020805460ff19166001179055513391907fda56da187d7c435e24a2fdb8588508194baf9139721a9f6f3cf41264c222d3c79061056a904290610bcc565b3390565b8035600160a060020a038116811461095b57600080fd5b919050565b600060208284031215610971578081fd5b61097a82610944565b9392505050565b600080600060608486031215610995578182fd5b83359250602084013591506109ac60408501610944565b90509250925092565b600080600080608085870312156109ca578081fd5b8435935060208501359250604085013580151581146109e7578182fd5b91506109f560608601610944565b905092959194509250565b600160a060020a0391909116815260200190565b901515815260200190565b9115158252602082015260400190565b921515835260208301919091521515604082015260600190565b918252602082015260400190565b92835260208301919091521515604082015260600190565b6020808252601d908201527f4f6e6c79204d696e65737472792063616e20616464206e657720487562000000604082015260600190565b60208082526026908201527f4f776e61626c653a206e6577206f776e657220697320746865207a65726f206160408201527f6464726573730000000000000000000000000000000000000000000000000000606082015260800190565b60208082526027908201527f56616363696e6520697320616c7265616479207375626d697420666f7220746860408201527f6973207573657200000000000000000000000000000000000000000000000000606082015260800190565b6020808252601d908201527f4f6e6c79204875622063616e2063616c6c2074686973206d6574686f64000000604082015260600190565b6020808252818101527f4f776e61626c653a2063616c6c6572206973206e6f7420746865206f776e6572604082015260600190565b9081526020019056fea26469706673582212202277e3f2595880acc0f33bad69007eb64a0e457f0251e3387a809757fc3eb5f064736f6c63430008000033",
  "immutableReferences": {},
  "source": "// SPDX-License-Identifier: GPL-3.0\npragma solidity  ^0.8.0;\nimport \"@openzeppelin/contracts/access/Ownable.sol\";\n\n///@title contract for covid healthy documentation passport\n///@author Davide Medaglia\ncontract Covid is Ownable {\n    //@ministries: if minestry is set address_minestry->true, otherwise address_minestry->false\n    mapping (address => bool) public ministries;\n    //@hubs: if hubs is set address_hub->true, otherwise address_hub->false\n    mapping (address => bool) public hubs;\n\n    struct Vaccine{\n        bytes32 hash;\n        uint time;\n    }\n\n    struct Test{\n        bytes32 hash;\n        uint time;\n        bool positivity;\n    }    \n    \n    mapping (address => mapping(bytes32 => Vaccine)) private user_vaccine;   //map: address user-> map(hash DocumentID => Vaccine)\n    mapping (address => mapping(bytes32 => Test)) private  user_test;        //map: map: address user-> map(hash DocumentID => Test)\n    \n    event testPublish(address indexed user, address indexed from, bytes32 hashTest, uint time, bool positivity);\n    event vaccinePublish(address indexed user, address indexed from, bytes32 hashCertificate, uint time);\n    event newHub(address indexed hubAddress, address indexed from, uint time);\n    event newMinestry(address indexed minestryAddress, address indexed from, uint time);\n    event deletedHub(address indexed hubAddres, address indexed from, uint time);\n    event deletedMinestry(address indexed minestryAddres, address indexed from, uint time);\n    \n    modifier onlyMinestry() {\n        require(ministries[msg.sender]==true, \"Only Minestry can add new Hub\");\n        _;\n    }\n    \n    modifier onlyHub(){\n        require(hubs[msg.sender]==true, \"Only Hub can call this method\");\n        _;\n    }\n    \n    function addMinestry(address _ministryAddress) public onlyOwner{\n        ministries[_ministryAddress] = true;\n        emit newMinestry(_ministryAddress, msg.sender, block.timestamp);\n    }    \n\n    function removeMinestry(address _ministryAddress) public onlyOwner{\n        ministries[_ministryAddress] = false;\n        emit deletedMinestry(_ministryAddress, msg.sender, block.timestamp);\n    }    \n    \n    function addHub(address _hubAddress) public onlyMinestry{\n        hubs[_hubAddress] = true;\n        emit newHub(_hubAddress, msg.sender, block.timestamp);\n    }\n\n    function removeHub(address _hubAddress) public onlyMinestry{\n        hubs[_hubAddress] = false;\n        emit deletedHub(_hubAddress, msg.sender, block.timestamp);\n    }\n    \n    function approveTest(bytes32 _hashID, bytes32 _hashTest, bool _positivity,  address _userAddress) public onlyHub{\n        uint time = block.timestamp;\n        user_test[_userAddress][_hashID] = Test(_hashTest, time, _positivity);\n        emit testPublish(_userAddress, msg.sender, _hashTest, time, _positivity);\n        }\n    \n    function approveVaccine(bytes32 _hashID, bytes32 _hashCertificate, address _userAddress) public onlyHub{\n        require(user_vaccine[_userAddress][_hashID].time == 0,\"Vaccine is already submit for this user\");\n            uint time = block.timestamp;\n            user_vaccine[_userAddress][_hashID] = Vaccine(_hashCertificate, time);\n            emit vaccinePublish(_userAddress, msg.sender, _hashCertificate, time);\n    }\n\n    //@return bool result: true if user and document hash correspond\n    //@return uint time: time when transaction is mined\n    function verificationVaccine(bytes32 _hashID, bytes32 _hashCertificate, address _userAddress) external view returns(bool result, uint time){\n        if(user_vaccine[_userAddress][_hashID].hash == _hashCertificate && user_vaccine[_userAddress][_hashID].time > 0) {\n            return (true, user_vaccine[_userAddress][_hashID].time);\n        }\n        return (false, 0);\n    }\n    \n    //@return bool result: true if user and document hash correspond\n    //@return uint time: time when transaction is mined\n    //@return bool positivity: return true if user is positive to covid, otherwise return false\n    function verificationTest(bytes32 _hashID, bytes32 _hashTest, address _userAddress) external view returns(bool result, uint time, bool positivity){\n        //address user = checkIdentity(_hashID);\n        if(user_test[_userAddress][_hashID].hash == _hashTest && user_test[_userAddress][_hashID].time > 0){\n                return (true, user_test[_userAddress][_hashID].time, user_test[_userAddress][_hashID].positivity);\n            \n        }\n        return (false, 0, false);\n    }\n}",
  "sourcePath": "/home/aca/Scrivania/Blockchain/project/contracts/Covid.sol",
  "compiler": {
    "name": "solc",
    "version": "0.8.0+commit.c7dfd78e.Emscripten.clang"
  },
  "schemaVersion": "3.3.4",
  "updatedAt": "2021-05-08T15:19:49.649Z",
  "networkType": "ethereum",
  "devdoc": {
    "author": "Davide Medaglia",
    "kind": "dev",
    "methods": {
      "owner()": {
        "details": "Returns the address of the current owner."
      },
      "renounceOwnership()": {
        "details": "Leaves the contract without owner. It will not be possible to call `onlyOwner` functions anymore. Can only be called by the current owner. NOTE: Renouncing ownership will leave the contract without an owner, thereby removing any functionality that is only available to the owner."
      },
      "transferOwnership(address)": {
        "details": "Transfers ownership of the contract to a new account (`newOwner`). Can only be called by the current owner."
      }
    },
    "title": "contract for covid healthy documentation passport",
    "version": 1
  },
  "userdoc": {
    "kind": "user",
    "methods": {},
    "version": 1
  }
}