{
  "contractName": "Covid",
  "abi": [
    {
      "anonymous": false,
      "inputs": [
        {
          "indexed": true,
          "internalType": "address",
          "name": "previousOwner",
          "type": "address"
        },
        {
          "indexed": true,
          "internalType": "address",
          "name": "newOwner",
          "type": "address"
        }
      ],
      "name": "OwnershipTransferred",
      "type": "event"
    },
    {
      "anonymous": false,
      "inputs": [
        {
          "indexed": true,
          "internalType": "address",
          "name": "hubAddress",
          "type": "address"
        },
        {
          "indexed": true,
          "internalType": "address",
          "name": "from",
          "type": "address"
        },
        {
          "indexed": false,
          "internalType": "uint256",
          "name": "time",
          "type": "uint256"
        }
      ],
      "name": "newHub",
      "type": "event"
    },
    {
      "anonymous": false,
      "inputs": [
        {
          "indexed": true,
          "internalType": "address",
          "name": "ministryAddress",
          "type": "address"
        },
        {
          "indexed": true,
          "internalType": "address",
          "name": "from",
          "type": "address"
        },
        {
          "indexed": false,
          "internalType": "uint256",
          "name": "time",
          "type": "uint256"
        }
      ],
      "name": "newMinestry",
      "type": "event"
    },
    {
      "anonymous": false,
      "inputs": [
        {
          "indexed": true,
          "internalType": "address",
          "name": "userAddress",
          "type": "address"
        },
        {
          "indexed": false,
          "internalType": "bytes32",
          "name": "hashID",
          "type": "bytes32"
        },
        {
          "indexed": false,
          "internalType": "uint256",
          "name": "time",
          "type": "uint256"
        },
        {
          "indexed": false,
          "internalType": "bool",
          "name": "result",
          "type": "bool"
        }
      ],
      "name": "newUser",
      "type": "event"
    },
    {
      "anonymous": false,
      "inputs": [
        {
          "indexed": true,
          "internalType": "address",
          "name": "user",
          "type": "address"
        },
        {
          "indexed": true,
          "internalType": "address",
          "name": "from",
          "type": "address"
        },
        {
          "indexed": false,
          "internalType": "bytes32",
          "name": "hashTest",
          "type": "bytes32"
        },
        {
          "indexed": false,
          "internalType": "uint256",
          "name": "time",
          "type": "uint256"
        },
        {
          "indexed": false,
          "internalType": "bool",
          "name": "positivity",
          "type": "bool"
        }
      ],
      "name": "testPublish",
      "type": "event"
    },
    {
      "anonymous": false,
      "inputs": [
        {
          "indexed": true,
          "internalType": "address",
          "name": "user",
          "type": "address"
        },
        {
          "indexed": true,
          "internalType": "address",
          "name": "from",
          "type": "address"
        },
        {
          "indexed": false,
          "internalType": "bytes32",
          "name": "hashCertificate",
          "type": "bytes32"
        },
        {
          "indexed": false,
          "internalType": "uint256",
          "name": "time",
          "type": "uint256"
        }
      ],
      "name": "vaccinoPublish",
      "type": "event"
    },
    {
      "inputs": [
        {
          "internalType": "address",
          "name": "",
          "type": "address"
        }
      ],
      "name": "hubs",
      "outputs": [
        {
          "internalType": "bool",
          "name": "",
          "type": "bool"
        }
      ],
      "stateMutability": "view",
      "type": "function",
      "constant": true
    },
    {
      "inputs": [
        {
          "internalType": "address",
          "name": "",
          "type": "address"
        }
      ],
      "name": "ministries",
      "outputs": [
        {
          "internalType": "bool",
          "name": "",
          "type": "bool"
        }
      ],
      "stateMutability": "view",
      "type": "function",
      "constant": true
    },
    {
      "inputs": [],
      "name": "owner",
      "outputs": [
        {
          "internalType": "address",
          "name": "",
          "type": "address"
        }
      ],
      "stateMutability": "view",
      "type": "function",
      "constant": true
    },
    {
      "inputs": [],
      "name": "renounceOwnership",
      "outputs": [],
      "stateMutability": "nonpayable",
      "type": "function"
    },
    {
      "inputs": [
        {
          "internalType": "address",
          "name": "newOwner",
          "type": "address"
        }
      ],
      "name": "transferOwnership",
      "outputs": [],
      "stateMutability": "nonpayable",
      "type": "function"
    },
    {
      "inputs": [
        {
          "internalType": "address",
          "name": "_ministryAddress",
          "type": "address"
        }
      ],
      "name": "addMinestry",
      "outputs": [],
      "stateMutability": "nonpayable",
      "type": "function"
    },
    {
      "inputs": [
        {
          "internalType": "address",
          "name": "_hubAddress",
          "type": "address"
        }
      ],
      "name": "addHub",
      "outputs": [],
      "stateMutability": "nonpayable",
      "type": "function"
    },
    {
      "inputs": [
        {
          "internalType": "bytes32",
          "name": "_hashID",
          "type": "bytes32"
        },
        {
          "internalType": "bytes32",
          "name": "_hashTest",
          "type": "bytes32"
        },
        {
          "internalType": "bool",
          "name": "_positivity",
          "type": "bool"
        },
        {
          "internalType": "address",
          "name": "_userAddress",
          "type": "address"
        }
      ],
      "name": "approveTest",
      "outputs": [],
      "stateMutability": "nonpayable",
      "type": "function"
    },
    {
      "inputs": [
        {
          "internalType": "bytes32",
          "name": "_hashID",
          "type": "bytes32"
        },
        {
          "internalType": "bytes32",
          "name": "_hashCertificate",
          "type": "bytes32"
        },
        {
          "internalType": "address",
          "name": "_userAddress",
          "type": "address"
        }
      ],
      "name": "approveVaccine",
      "outputs": [],
      "stateMutability": "nonpayable",
      "type": "function"
    },
    {
      "inputs": [
        {
          "internalType": "bytes32",
          "name": "_hashID",
          "type": "bytes32"
        },
        {
          "internalType": "bytes32",
          "name": "_hashCertificate",
          "type": "bytes32"
        },
        {
          "internalType": "address",
          "name": "_userAddress",
          "type": "address"
        }
      ],
      "name": "verificationVaccine",
      "outputs": [
        {
          "internalType": "bool",
          "name": "result",
          "type": "bool"
        },
        {
          "internalType": "uint256",
          "name": "time",
          "type": "uint256"
        }
      ],
      "stateMutability": "view",
      "type": "function",
      "constant": true
    },
    {
      "inputs": [
        {
          "internalType": "bytes32",
          "name": "_hashID",
          "type": "bytes32"
        },
        {
          "internalType": "bytes32",
          "name": "_hashTest",
          "type": "bytes32"
        },
        {
          "internalType": "address",
          "name": "_userAddress",
          "type": "address"
        }
      ],
      "name": "verificationTest",
      "outputs": [
        {
          "internalType": "bool",
          "name": "result",
          "type": "bool"
        },
        {
          "internalType": "uint256",
          "name": "time",
          "type": "uint256"
        },
        {
          "internalType": "bool",
          "name": "positivity",
          "type": "bool"
        }
      ],
      "stateMutability": "view",
      "type": "function",
      "constant": true
    }
  ],
  "bytecode": "0x608060405234801561001057600080fd5b506000610024640100000000610073810204565b60008054600160a060020a031916600160a060020a0383169081178255604051929350917f8be0079c531659141344cd1fd0a4f28419497f9722a3daafe3b4186f6b6457e0908290a350610077565b3390565b610aa0806100866000396000f3fe608060405234801561001057600080fd5b50600436106100c6576000357c010000000000000000000000000000000000000000000000000000000090048063ace82ce91161008e578063ace82ce914610149578063bdd3024714610169578063ca3106ae1461017c578063ca55e4de1461018f578063f2fde38b146101a2578063f97d9fc1146101b5576100c6565b80630f76488b146100cb57806344a8f611146100f55780635c81e5521461010a578063715018a61461012c5780638da5cb5b14610134575b600080fd5b6100de6100d9366004610816565b6101c8565b6040516100ec9291906108b4565b60405180910390f35b61010861010336600461084a565b610265565b005b61011d610118366004610816565b61034a565b6040516100ec939291906108c4565b6101086103fa565b61013c610493565b6040516100ec9190610895565b61015c6101573660046107f5565b6104a2565b6040516100ec91906108a9565b6101086101773660046107f5565b6104b7565b61015c61018a3660046107f5565b61055c565b61010861019d366004610816565b610571565b6101086101b03660046107f5565b610674565b6101086101c33660046107f5565b610747565b600160a060020a03811660009081526003602090815260408083208684529091528120548190841480156102215750600160a060020a038316600090815260036020908152604080832088845290915290206001015415155b15610256575050600160a060020a0381166000908152600360209081526040808320868452909152902060019081015461025d565b5060009050805b935093915050565b3360009081526002602052604090205460ff1615156001146102a55760405160e560020a62461bcd02815260040161029c906109f5565b60405180910390fd5b60408051606081018252848152426020808301828152861515848601908152600160a060020a0387166000818152600485528781208c8252909452928690209451855590516001850155516002909301805460ff19169315159390931790925591513391907f23a066051b1a4d4c024f5f80b7178456a883bf9e376a20a4a93a0aa0199734949061033b908890869089906108ec565b60405180910390a35050505050565b600160a060020a038116600090815260046020908152604080832086845290915281205481908190851480156103a55750600160a060020a038416600090815260046020908152604080832089845290915290206001015415155b156103e757505050600160a060020a0381166000908152600460209081526040808320868452909152902060018082015460029092015490919060ff166103f1565b5060009150819050805b93509350939050565b6104026107d5565b600160a060020a0316610413610493565b600160a060020a03161461043c5760405160e560020a62461bcd02815260040161029c90610a2c565b60008054604051600160a060020a03909116907f8be0079c531659141344cd1fd0a4f28419497f9722a3daafe3b4186f6b6457e0908390a36000805473ffffffffffffffffffffffffffffffffffffffff19169055565b600054600160a060020a031690565b60016020526000908152604090205460ff1681565b6104bf6107d5565b600160a060020a03166104d0610493565b600160a060020a0316146104f95760405160e560020a62461bcd02815260040161029c90610a2c565b600160a060020a038116600081815260016020819052604091829020805460ff19169091179055513391907f7e51bf9e7b198edc727262a7a3d711bd89c0b993f484ade22606a4c494652f0290610551904290610a61565b60405180910390a350565b60026020526000908152604090205460ff1681565b3360009081526002602052604090205460ff1615156001146105a85760405160e560020a62461bcd02815260040161029c906109f5565b600160a060020a0381166000908152600360209081526040808320868452909152902060010154156105ef5760405160e560020a62461bcd02815260040161029c90610998565b604080518082018252838152426020808301828152600160a060020a0386166000818152600384528681208a825290935291859020935184555160019093019290925591513391907fa02f6837f12eae36e722daf99cf77070162dd4acc69f5a222475f0b9f8dd15bf9061066690879086906108de565b60405180910390a350505050565b61067c6107d5565b600160a060020a031661068d610493565b600160a060020a0316146106b65760405160e560020a62461bcd02815260040161029c90610a2c565b600160a060020a0381166106df5760405160e560020a62461bcd02815260040161029c9061093b565b60008054604051600160a060020a03808516939216917f8be0079c531659141344cd1fd0a4f28419497f9722a3daafe3b4186f6b6457e091a36000805473ffffffffffffffffffffffffffffffffffffffff1916600160a060020a0392909216919091179055565b3360009081526001602081905260409091205460ff1615151461077f5760405160e560020a62461bcd02815260040161029c90610904565b600160a060020a03811660008181526002602052604090819020805460ff19166001179055513391907fda56da187d7c435e24a2fdb8588508194baf9139721a9f6f3cf41264c222d3c790610551904290610a61565b3390565b8035600160a060020a03811681146107f057600080fd5b919050565b600060208284031215610806578081fd5b61080f826107d9565b9392505050565b60008060006060848603121561082a578182fd5b8335925060208401359150610841604085016107d9565b90509250925092565b6000806000806080858703121561085f578081fd5b84359350602085013592506040850135801515811461087c578182fd5b915061088a606086016107d9565b905092959194509250565b600160a060020a0391909116815260200190565b901515815260200190565b9115158252602082015260400190565b921515835260208301919091521515604082015260600190565b918252602082015260400190565b92835260208301919091521515604082015260600190565b6020808252601d908201527f4f6e6c79204d696e65737472792063616e20616464206e657720487562000000604082015260600190565b60208082526026908201527f4f776e61626c653a206e6577206f776e657220697320746865207a65726f206160408201527f6464726573730000000000000000000000000000000000000000000000000000606082015260800190565b60208082526027908201527f56616363696e6520697320616c7265616479207375626d697420666f7220746860408201527f6973207573657200000000000000000000000000000000000000000000000000606082015260800190565b6020808252601d908201527f4f6e6c79204875622063616e2063616c6c2074686973206d6574686f64000000604082015260600190565b6020808252818101527f4f776e61626c653a2063616c6c6572206973206e6f7420746865206f776e6572604082015260600190565b9081526020019056fea2646970667358221220fee9a38437f7430b83090434875fb8be7e58fa942f426e270d9342f3a18229b764736f6c63430008000033",
  "immutableReferences": {},
  "source": "// SPDX-License-Identifier: GPL-3.0\npragma solidity  >=0.8.0;\nimport \"@openzeppelin/contracts/access/Ownable.sol\";\n\n///@title contract for covid healthy documentation passport\n///@author Davide Medaglia\ncontract Covid is Ownable {\n    //@ministries: if minestry is set address_minestry->true, otherwise address_minestry->false\n    mapping (address => bool) public ministries;\n    //@hubs: if hubs is set address_hub->true, otherwise address_hub->false\n    mapping (address => bool) public hubs;\n\n    struct Vaccine{\n        bytes32 hash;\n        uint time;\n    }\n\n    struct Test{\n        bytes32 hash;\n        uint time;\n        bool positivity;\n    }    \n    \n    mapping (address => mapping(bytes32 => Vaccine)) private user_vaccine;   //map: address user-> map(hash DocumentID => Vaccine)\n    mapping (address => mapping(bytes32 => Test)) private  user_test;        //map: map: address user-> map(hash DocumentID => Test)\n    \n    event testPublish(address indexed user, address indexed from, bytes32 hashTest, uint time, bool positivity);\n    event vaccinoPublish(address indexed user, address indexed from, bytes32 hashCertificate, uint time);\n    event newHub(address indexed hubAddress, address indexed from, uint time);\n    event newMinestry(address indexed ministryAddress, address indexed from, uint time);\n    event newUser(address indexed userAddress, bytes32 hashID, uint time, bool result);\n    \n\n    modifier onlyMinestry() {\n        require(ministries[msg.sender] ==true, \"Only Minestry can add new Hub\");\n        _;\n    }\n    \n    modifier onlyHub(){\n        require(hubs[msg.sender]==true, \"Only Hub can call this method\");\n        _;\n    }\n    \n    function addMinestry(address _ministryAddress) public onlyOwner{\n        ministries[_ministryAddress] = true;\n        emit newMinestry(_ministryAddress, msg.sender, block.timestamp);\n    }    \n    \n    function addHub(address _hubAddress) public onlyMinestry{\n        hubs[_hubAddress] = true;\n        emit newHub(_hubAddress, msg.sender, block.timestamp);\n    }\n    \n    function approveTest(bytes32 _hashID, bytes32 _hashTest, bool _positivity,  address _userAddress) public onlyHub{\n        uint time = block.timestamp;\n        user_test[_userAddress][_hashID] = Test(_hashTest, time, _positivity);\n        emit testPublish(_userAddress, msg.sender, _hashTest, time, _positivity);\n        }\n    \n    function approveVaccine(bytes32 _hashID, bytes32 _hashCertificate, address _userAddress) public onlyHub{\n        require(user_vaccine[_userAddress][_hashID].time == 0,\"Vaccine is already submit for this user\");\n            uint time = block.timestamp;\n            user_vaccine[_userAddress][_hashID] = Vaccine(_hashCertificate, time);\n            emit vaccinoPublish(_userAddress, msg.sender, _hashCertificate, time);\n    }\n\n    //@return bool result: true if user and document hash correspond\n    //@return uint time: time when transaction is mined\n    function verificationVaccine(bytes32 _hashID, bytes32 _hashCertificate, address _userAddress) external view returns(bool result, uint time){\n        if(user_vaccine[_userAddress][_hashID].hash == _hashCertificate && user_vaccine[_userAddress][_hashID].time > 0) {\n            return (true, user_vaccine[_userAddress][_hashID].time);\n        }\n        return (false, 0);\n    }\n    \n    //@return bool result: true if user and document hash correspond\n    //@return uint time: time when transaction is mined\n    //@return bool positivity: return true if user is positive to covid, otherwise return false\n    function verificationTest(bytes32 _hashID, bytes32 _hashTest, address _userAddress) external view returns(bool result, uint time, bool positivity){\n        //address user = checkIdentity(_hashID);\n        if(user_test[_userAddress][_hashID].hash == _hashTest && user_test[_userAddress][_hashID].time > 0){\n                return (true, user_test[_userAddress][_hashID].time, user_test[_userAddress][_hashID].positivity);\n            \n        }\n        return (false, 0, false);\n    }\n}",
  "sourcePath": "/home/aca/Scrivania/Blockchain/project/contracts/Covid.sol",
  "compiler": {
    "name": "solc",
    "version": "0.8.0+commit.c7dfd78e.Emscripten.clang"
  },
  "schemaVersion": "3.3.4",
  "updatedAt": "2021-04-23T11:13:29.555Z",
  "networkType": "ethereum",
  "devdoc": {
    "author": "Davide Medaglia",
    "kind": "dev",
    "methods": {
      "owner()": {
        "details": "Returns the address of the current owner."
      },
      "renounceOwnership()": {
        "details": "Leaves the contract without owner. It will not be possible to call `onlyOwner` functions anymore. Can only be called by the current owner. NOTE: Renouncing ownership will leave the contract without an owner, thereby removing any functionality that is only available to the owner."
      },
      "transferOwnership(address)": {
        "details": "Transfers ownership of the contract to a new account (`newOwner`). Can only be called by the current owner."
      }
    },
    "title": "contract for covid healthy documentation passport",
    "version": 1
  },
  "userdoc": {
    "kind": "user",
    "methods": {},
    "version": 1
  }
}